{
  "contractName": "DCS",
  "abi": [
    {
      "inputs": [
        {
          "internalType": "address",
          "name": "_universityAddress",
          "type": "address"
        }
      ],
      "stateMutability": "nonpayable",
      "type": "constructor"
    },
    {
      "inputs": [
        {
          "internalType": "uint256",
          "name": "",
          "type": "uint256"
        }
      ],
      "name": "certificates",
      "outputs": [
        {
          "internalType": "uint256",
          "name": "id",
          "type": "uint256"
        },
        {
          "internalType": "string",
          "name": "data",
          "type": "string"
        },
        {
          "internalType": "bool",
          "name": "isValid",
          "type": "bool"
        }
      ],
      "stateMutability": "view",
      "type": "function"
    },
    {
      "inputs": [],
      "name": "university",
      "outputs": [
        {
          "internalType": "contract University",
          "name": "",
          "type": "address"
        }
      ],
      "stateMutability": "view",
      "type": "function"
    },
    {
      "inputs": [
        {
          "internalType": "uint256",
          "name": "_studentId",
          "type": "uint256"
        },
        {
          "internalType": "string",
          "name": "_data",
          "type": "string"
        }
      ],
      "name": "issueCertificate",
      "outputs": [],
      "stateMutability": "nonpayable",
      "type": "function"
    },
    {
      "inputs": [
        {
          "internalType": "uint256",
          "name": "_studentId",
          "type": "uint256"
        }
      ],
      "name": "validateCertificate",
      "outputs": [
        {
          "internalType": "bool",
          "name": "",
          "type": "bool"
        }
      ],
      "stateMutability": "view",
      "type": "function"
    }
  ],
  "bytecode": "0x608060405234801561001057600080fd5b50604051610abd380380610abd833981810160405281019061003291906100db565b806000806101000a81548173ffffffffffffffffffffffffffffffffffffffff021916908373ffffffffffffffffffffffffffffffffffffffff16021790555050610108565b600080fd5b600073ffffffffffffffffffffffffffffffffffffffff82169050919050565b60006100a88261007d565b9050919050565b6100b88161009d565b81146100c357600080fd5b50565b6000815190506100d5816100af565b92915050565b6000602082840312156100f1576100f0610078565b5b60006100ff848285016100c6565b91505092915050565b6109a6806101176000396000f3fe608060405234801561001057600080fd5b506004361061004c5760003560e01c80630c816de41461005157806312bff8471461006d578063663b3e221461009d578063ae12894e146100cf575b600080fd5b61006b6004803603810190610066919061060e565b6100ed565b005b6100876004803603810190610082919061066a565b610211565b60405161009491906106b2565b60405180910390f35b6100b760048036038101906100b2919061066a565b6102f8565b6040516100c693929190610764565b60405180910390f35b6100d76103b7565b6040516100e49190610821565b60405180910390f35b60008060009054906101000a900473ffffffffffffffffffffffffffffffffffffffff1673ffffffffffffffffffffffffffffffffffffffff16630a3d2fbf846040518263ffffffff1660e01b8152600401610149919061083c565b600060405180830381865afa158015610166573d6000803e3d6000fd5b505050506040513d6000823e3d601f19601f8201168201806040525081019061018f91906108c7565b9050604051806060016040528084815260200183815260200160011515815250600160008581526020019081526020016000206000820151816000015560208201518160010190805190602001906101e89291906103db565b5060408201518160020160006101000a81548160ff021916908315150217905550905050505050565b600080600160008481526020019081526020016000206040518060600160405290816000820154815260200160018201805461024c9061093f565b80601f01602080910402602001604051908101604052809291908181526020018280546102789061093f565b80156102c55780601f1061029a576101008083540402835291602001916102c5565b820191906000526020600020905b8154815290600101906020018083116102a857829003601f168201915b505050505081526020016002820160009054906101000a900460ff16151515158152505090508060400151915050919050565b60016020528060005260406000206000915090508060000154908060010180546103219061093f565b80601f016020809104026020016040519081016040528092919081815260200182805461034d9061093f565b801561039a5780601f1061036f5761010080835404028352916020019161039a565b820191906000526020600020905b81548152906001019060200180831161037d57829003601f168201915b5050505050908060020160009054906101000a900460ff16905083565b60008054906101000a900473ffffffffffffffffffffffffffffffffffffffff1681565b8280546103e79061093f565b90600052602060002090601f0160209004810192826104095760008555610450565b82601f1061042257805160ff1916838001178555610450565b82800160010185558215610450579182015b8281111561044f578251825591602001919060010190610434565b5b50905061045d9190610461565b5090565b5b8082111561047a576000816000905550600101610462565b5090565b6000604051905090565b600080fd5b600080fd5b6000819050919050565b6104a581610492565b81146104b057600080fd5b50565b6000813590506104c28161049c565b92915050565b600080fd5b600080fd5b6000601f19601f8301169050919050565b7f4e487b7100000000000000000000000000000000000000000000000000000000600052604160045260246000fd5b61051b826104d2565b810181811067ffffffffffffffff8211171561053a576105396104e3565b5b80604052505050565b600061054d61047e565b90506105598282610512565b919050565b600067ffffffffffffffff821115610579576105786104e3565b5b610582826104d2565b9050602081019050919050565b82818337600083830152505050565b60006105b16105ac8461055e565b610543565b9050828152602081018484840111156105cd576105cc6104cd565b5b6105d884828561058f565b509392505050565b600082601f8301126105f5576105f46104c8565b5b813561060584826020860161059e565b91505092915050565b6000806040838503121561062557610624610488565b5b6000610633858286016104b3565b925050602083013567ffffffffffffffff8111156106545761065361048d565b5b610660858286016105e0565b9150509250929050565b6000602082840312156106805761067f610488565b5b600061068e848285016104b3565b91505092915050565b60008115159050919050565b6106ac81610697565b82525050565b60006020820190506106c760008301846106a3565b92915050565b6106d681610492565b82525050565b600081519050919050565b600082825260208201905092915050565b60005b838110156107165780820151818401526020810190506106fb565b83811115610725576000848401525b50505050565b6000610736826106dc565b61074081856106e7565b93506107508185602086016106f8565b610759816104d2565b840191505092915050565b600060608201905061077960008301866106cd565b818103602083015261078b818561072b565b905061079a60408301846106a3565b949350505050565b600073ffffffffffffffffffffffffffffffffffffffff82169050919050565b6000819050919050565b60006107e76107e26107dd846107a2565b6107c2565b6107a2565b9050919050565b60006107f9826107cc565b9050919050565b600061080b826107ee565b9050919050565b61081b81610800565b82525050565b60006020820190506108366000830184610812565b92915050565b600060208201905061085160008301846106cd565b92915050565b600061086a6108658461055e565b610543565b905082815260208101848484011115610886576108856104cd565b5b6108918482856106f8565b509392505050565b600082601f8301126108ae576108ad6104c8565b5b81516108be848260208601610857565b91505092915050565b6000602082840312156108dd576108dc610488565b5b600082015167ffffffffffffffff8111156108fb576108fa61048d565b5b61090784828501610899565b91505092915050565b7f4e487b7100000000000000000000000000000000000000000000000000000000600052602260045260246000fd5b6000600282049050600182168061095757607f821691505b60208210810361096a57610969610910565b5b5091905056fea264697066735822122083f6b6197b685f7ed7862af96c96b49d9554933f2c2428c431492c3fd941156564736f6c634300080d0033",
  "immutableReferences": {},
  "source": "// SPDX-License-Identifier: MIT\npragma solidity ^0.8.0;\n\ncontract University {\n    struct Student {\n        string name;\n        uint studentId;\n    }\n\n    Student[] public students;\n    mapping(uint => Student) public studentByCertificateId;\n\n    function applyForCertificate(string memory _name) public returns (uint) {\n        uint studentId = students.length;\n        students.push(Student(_name, studentId));\n        studentByCertificateId[studentId] = Student(_name, studentId);\n        return studentId;\n    }\n\n    function verifyStudent(uint _studentId) public view returns (string memory) {\n        Student memory student = studentByCertificateId[_studentId];\n        return student.name;\n    }\n}\n\ncontract DCS {\n    University public university;\n    struct Certificate {\n        uint id;\n        string data;\n        bool isValid;\n    }\n\n    mapping (uint => Certificate) public certificates;\n\n    constructor(address _universityAddress) {\n        university = University(_universityAddress);\n    }\n\n    function issueCertificate(uint _studentId, string memory _data) public {\n        string memory studentName = university.verifyStudent(_studentId);\n        certificates[_studentId] = Certificate(_studentId, _data, true);\n    }\n\n    function validateCertificate(uint _studentId) public view returns (bool) {\n        Certificate memory certificate = certificates[_studentId];\n        return certificate.isValid;\n    }\n}\n\ncontract CUE {\n    DCS public dcs;\n\n    constructor(address _dcsAddress) {\n        dcs = DCS(_dcsAddress);\n    }\n\n    function validateCertificate(uint _studentId) public view returns (bool) {\n        return dcs.validateCertificate(_studentId);\n    }\n}\n\ncontract KNQA {\n    DCS public dcs;\n\n    constructor(address _dcsAddress) {\n        dcs = DCS(_dcsAddress);\n    }\n\n    function validateCertificate(uint _studentId) public view returns (bool) {\n        return dcs.validateCertificate(_studentId);\n    }\n}\n\ncontract DigitalCertificateSystem {\n    address public owner;\n    DCS public dcs;\n\n    enum CertificateStatus { Pending, Approved, Rejected }\n\n    struct CertificateRequest {\n        address graduate;\n        string university;\n        string data;\n        CertificateStatus status;\n    }\n\n    mapping(uint256 => CertificateRequest) public certificateRequests;\n    uint256 public lastCertificateId;\n\n    event CertificateRequested(uint256 certificateId, address graduate, string university);\n    event CertificateApproved(uint256 certificateId);\n    event CertificateRejected(uint256 certificateId);\n\n    modifier onlyOwner() {\n        require(msg.sender == owner, \"Only the contract owner can call this function\");\n        _;\n    }\n\n    constructor(address _dcsAddress) {\n        owner = msg.sender;\n        lastCertificateId = 0;\n        dcs = DCS(_dcsAddress);\n    }\n\n    function requestCertificate(string memory university, string memory data) external {\n        lastCertificateId++;\n        certificateRequests[lastCertificateId] = CertificateRequest({\n            graduate: msg.sender,\n            university: university,\n            data: data,\n            status: CertificateStatus.Pending\n        });\n\n        emit CertificateRequested(lastCertificateId, msg.sender, university);\n    }\n\n    function approveCertificate(uint256 certificateId, uint studentId) external onlyOwner {\n        require(certificateId <= lastCertificateId, \"Invalid certificate ID\");\n\n        CertificateRequest storage request = certificateRequests[certificateId];\n        require(request.status == CertificateStatus.Pending, \"Certificate request is not pending\");\n\n        request.status = CertificateStatus.Approved;\n        emit CertificateApproved(certificateId);\n\n        // Issue certificate via DCS after approval\n        dcs.issueCertificate(studentId, request.data);\n    }\n\n    function rejectCertificate(uint256 certificateId) external onlyOwner {\n        require(certificateId <= lastCertificateId, \"Invalid certificate ID\");\n\n        CertificateRequest storage request = certificateRequests[certificateId];\n        require(request.status == CertificateStatus.Pending, \"Certificate request is not pending\");\n\n        request.status = CertificateStatus.Rejected;\n        emit CertificateRejected(certificateId);\n    }\n\n    function getCertificateStatus(uint256 certificateId) external view returns (CertificateStatus) {\n        require(certificateId <= lastCertificateId, \"Invalid certificate ID\");\n        return certificateRequests[certificateId].status;\n    }\n}",
  "sourcePath": "C:\\Users\\Admin\\Desktop\\icp-tutorial\\DigitalCertificateSystem\\contracts\\DigitalCertificateSystem.sol",
  "compiler": {
    "name": "solc",
    "version": "0.8.13+commit.abaa5c0e.Emscripten.clang"
  },
  "schemaVersion": "3.4.13",
  "updatedAt": "2023-08-07T14:23:04.694Z",
  "devdoc": {
    "kind": "dev",
    "methods": {},
    "version": 1
  },
  "userdoc": {
    "kind": "user",
    "methods": {},
    "version": 1
  }
}