{
  "contractName": "DigitalCertificateSystem",
  "abi": [
    {
      "inputs": [
        {
          "internalType": "address",
          "name": "_dcsAddress",
          "type": "address"
        }
      ],
      "stateMutability": "nonpayable",
      "type": "constructor"
    },
    {
      "anonymous": false,
      "inputs": [
        {
          "indexed": false,
          "internalType": "uint256",
          "name": "certificateId",
          "type": "uint256"
        }
      ],
      "name": "CertificateApproved",
      "type": "event"
    },
    {
      "anonymous": false,
      "inputs": [
        {
          "indexed": false,
          "internalType": "uint256",
          "name": "certificateId",
          "type": "uint256"
        }
      ],
      "name": "CertificateRejected",
      "type": "event"
    },
    {
      "anonymous": false,
      "inputs": [
        {
          "indexed": false,
          "internalType": "uint256",
          "name": "certificateId",
          "type": "uint256"
        },
        {
          "indexed": false,
          "internalType": "address",
          "name": "graduate",
          "type": "address"
        },
        {
          "indexed": false,
          "internalType": "string",
          "name": "university",
          "type": "string"
        }
      ],
      "name": "CertificateRequested",
      "type": "event"
    },
    {
      "inputs": [
        {
          "internalType": "uint256",
          "name": "",
          "type": "uint256"
        }
      ],
      "name": "certificateRequests",
      "outputs": [
        {
          "internalType": "address",
          "name": "graduate",
          "type": "address"
        },
        {
          "internalType": "string",
          "name": "university",
          "type": "string"
        },
        {
          "internalType": "string",
          "name": "data",
          "type": "string"
        },
        {
          "internalType": "enum DigitalCertificateSystem.CertificateStatus",
          "name": "status",
          "type": "uint8"
        }
      ],
      "stateMutability": "view",
      "type": "function"
    },
    {
      "inputs": [],
      "name": "dcs",
      "outputs": [
        {
          "internalType": "contract DCS",
          "name": "",
          "type": "address"
        }
      ],
      "stateMutability": "view",
      "type": "function"
    },
    {
      "inputs": [],
      "name": "lastCertificateId",
      "outputs": [
        {
          "internalType": "uint256",
          "name": "",
          "type": "uint256"
        }
      ],
      "stateMutability": "view",
      "type": "function"
    },
    {
      "inputs": [],
      "name": "owner",
      "outputs": [
        {
          "internalType": "address",
          "name": "",
          "type": "address"
        }
      ],
      "stateMutability": "view",
      "type": "function"
    },
    {
      "inputs": [
        {
          "internalType": "string",
          "name": "university",
          "type": "string"
        },
        {
          "internalType": "string",
          "name": "data",
          "type": "string"
        }
      ],
      "name": "requestCertificate",
      "outputs": [],
      "stateMutability": "nonpayable",
      "type": "function"
    },
    {
      "inputs": [
        {
          "internalType": "uint256",
          "name": "certificateId",
          "type": "uint256"
        },
        {
          "internalType": "uint256",
          "name": "studentId",
          "type": "uint256"
        }
      ],
      "name": "approveCertificate",
      "outputs": [],
      "stateMutability": "nonpayable",
      "type": "function"
    },
    {
      "inputs": [
        {
          "internalType": "uint256",
          "name": "certificateId",
          "type": "uint256"
        }
      ],
      "name": "rejectCertificate",
      "outputs": [],
      "stateMutability": "nonpayable",
      "type": "function"
    },
    {
      "inputs": [
        {
          "internalType": "uint256",
          "name": "certificateId",
          "type": "uint256"
        }
      ],
      "name": "getCertificateStatus",
      "outputs": [
        {
          "internalType": "enum DigitalCertificateSystem.CertificateStatus",
          "name": "",
          "type": "uint8"
        }
      ],
      "stateMutability": "view",
      "type": "function"
    }
  ],
  "bytecode": "0x60806040523480156200001157600080fd5b50604051620013f8380380620013f8833981810160405281019062000037919062000131565b336000806101000a81548173ffffffffffffffffffffffffffffffffffffffff021916908373ffffffffffffffffffffffffffffffffffffffff160217905550600060038190555080600160006101000a81548173ffffffffffffffffffffffffffffffffffffffff021916908373ffffffffffffffffffffffffffffffffffffffff1602179055505062000163565b600080fd5b600073ffffffffffffffffffffffffffffffffffffffff82169050919050565b6000620000f982620000cc565b9050919050565b6200010b81620000ec565b81146200011757600080fd5b50565b6000815190506200012b8162000100565b92915050565b6000602082840312156200014a5762000149620000c7565b5b60006200015a848285016200011a565b91505092915050565b61128580620001736000396000f3fe608060405234801561001057600080fd5b50600436106100885760003560e01c80639112de211161005b5780639112de211461011657806395142ede146101345780639e0b7a1c14610152578063bbe7f23b1461016e57610088565b806301ff4a2d1461008d5780631f97a238146100a95780636332a4ea146100c55780638da5cb5b146100f8575b600080fd5b6100a760048036038101906100a29190610b5d565b61019e565b005b6100c360048036038101906100be9190610c0b565b61030a565b005b6100df60048036038101906100da9190610c0b565b6104d4565b6040516100ef9493929190610d78565b60405180910390f35b610100610641565b60405161010d9190610dcb565b60405180910390f35b61011e610665565b60405161012b9190610df5565b60405180910390f35b61013c61066b565b6040516101499190610e6f565b60405180910390f35b61016c60048036038101906101679190610e8a565b610691565b005b61018860048036038101906101839190610c0b565b6108ee565b6040516101959190610eca565b60405180910390f35b600360008154809291906101b190610f14565b919050555060405180608001604052803373ffffffffffffffffffffffffffffffffffffffff168152602001838152602001828152602001600060028111156101fd576101fc610d01565b5b81525060026000600354815260200190815260200160002060008201518160000160006101000a81548173ffffffffffffffffffffffffffffffffffffffff021916908373ffffffffffffffffffffffffffffffffffffffff1602179055506020820151816001019080519060200190610278929190610960565b506040820151816002019080519060200190610295929190610960565b5060608201518160030160006101000a81548160ff021916908360028111156102c1576102c0610d01565b5b02179055509050507fe487aaec59cb14627459d84595f568434813b38e10a24e711299b9a6709d997460035433846040516102fe93929190610f5c565b60405180910390a15050565b60008054906101000a900473ffffffffffffffffffffffffffffffffffffffff1673ffffffffffffffffffffffffffffffffffffffff163373ffffffffffffffffffffffffffffffffffffffff1614610398576040517f08c379a000000000000000000000000000000000000000000000000000000000815260040161038f9061100c565b60405180910390fd5b6003548111156103dd576040517f08c379a00000000000000000000000000000000000000000000000000000000081526004016103d490611078565b60405180910390fd5b60006002600083815260200190815260200160002090506000600281111561040857610407610d01565b5b8160030160009054906101000a900460ff16600281111561042c5761042b610d01565b5b1461046c576040517f08c379a00000000000000000000000000000000000000000000000000000000081526004016104639061110a565b60405180910390fd5b60028160030160006101000a81548160ff0219169083600281111561049457610493610d01565b5b02179055507f1fcb0e58db76709527add01ffe9214be47f647f7dfdf84d1a3c341c5eec70167826040516104c89190610df5565b60405180910390a15050565b60026020528060005260406000206000915090508060000160009054906101000a900473ffffffffffffffffffffffffffffffffffffffff169080600101805461051d90611159565b80601f016020809104026020016040519081016040528092919081815260200182805461054990611159565b80156105965780601f1061056b57610100808354040283529160200191610596565b820191906000526020600020905b81548152906001019060200180831161057957829003601f168201915b5050505050908060020180546105ab90611159565b80601f01602080910402602001604051908101604052809291908181526020018280546105d790611159565b80156106245780601f106105f957610100808354040283529160200191610624565b820191906000526020600020905b81548152906001019060200180831161060757829003601f168201915b5050505050908060030160009054906101000a900460ff16905084565b60008054906101000a900473ffffffffffffffffffffffffffffffffffffffff1681565b60035481565b600160009054906101000a900473ffffffffffffffffffffffffffffffffffffffff1681565b60008054906101000a900473ffffffffffffffffffffffffffffffffffffffff1673ffffffffffffffffffffffffffffffffffffffff163373ffffffffffffffffffffffffffffffffffffffff161461071f576040517f08c379a00000000000000000000000000000000000000000000000000000000081526004016107169061100c565b60405180910390fd5b600354821115610764576040517f08c379a000000000000000000000000000000000000000000000000000000000815260040161075b90611078565b60405180910390fd5b60006002600084815260200190815260200160002090506000600281111561078f5761078e610d01565b5b8160030160009054906101000a900460ff1660028111156107b3576107b2610d01565b5b146107f3576040517f08c379a00000000000000000000000000000000000000000000000000000000081526004016107ea9061110a565b60405180910390fd5b60018160030160006101000a81548160ff0219169083600281111561081b5761081a610d01565b5b02179055507f3d468abf1afea676998d9dd96e54b925bdcef67cdb02d1fda7f85a8863ebfcbb8360405161084f9190610df5565b60405180910390a1600160009054906101000a900473ffffffffffffffffffffffffffffffffffffffff1673ffffffffffffffffffffffffffffffffffffffff16630c816de483836002016040518363ffffffff1660e01b81526004016108b792919061121f565b600060405180830381600087803b1580156108d157600080fd5b505af11580156108e5573d6000803e3d6000fd5b50505050505050565b6000600354821115610935576040517f08c379a000000000000000000000000000000000000000000000000000000000815260040161092c90611078565b60405180910390fd5b6002600083815260200190815260200160002060030160009054906101000a900460ff169050919050565b82805461096c90611159565b90600052602060002090601f01602090048101928261098e57600085556109d5565b82601f106109a757805160ff19168380011785556109d5565b828001600101855582156109d5579182015b828111156109d45782518255916020019190600101906109b9565b5b5090506109e291906109e6565b5090565b5b808211156109ff5760008160009055506001016109e7565b5090565b6000604051905090565b600080fd5b600080fd5b600080fd5b600080fd5b6000601f19601f8301169050919050565b7f4e487b7100000000000000000000000000000000000000000000000000000000600052604160045260246000fd5b610a6a82610a21565b810181811067ffffffffffffffff82111715610a8957610a88610a32565b5b80604052505050565b6000610a9c610a03565b9050610aa88282610a61565b919050565b600067ffffffffffffffff821115610ac857610ac7610a32565b5b610ad182610a21565b9050602081019050919050565b82818337600083830152505050565b6000610b00610afb84610aad565b610a92565b905082815260208101848484011115610b1c57610b1b610a1c565b5b610b27848285610ade565b509392505050565b600082601f830112610b4457610b43610a17565b5b8135610b54848260208601610aed565b91505092915050565b60008060408385031215610b7457610b73610a0d565b5b600083013567ffffffffffffffff811115610b9257610b91610a12565b5b610b9e85828601610b2f565b925050602083013567ffffffffffffffff811115610bbf57610bbe610a12565b5b610bcb85828601610b2f565b9150509250929050565b6000819050919050565b610be881610bd5565b8114610bf357600080fd5b50565b600081359050610c0581610bdf565b92915050565b600060208284031215610c2157610c20610a0d565b5b6000610c2f84828501610bf6565b91505092915050565b600073ffffffffffffffffffffffffffffffffffffffff82169050919050565b6000610c6382610c38565b9050919050565b610c7381610c58565b82525050565b600081519050919050565b600082825260208201905092915050565b60005b83811015610cb3578082015181840152602081019050610c98565b83811115610cc2576000848401525b50505050565b6000610cd382610c79565b610cdd8185610c84565b9350610ced818560208601610c95565b610cf681610a21565b840191505092915050565b7f4e487b7100000000000000000000000000000000000000000000000000000000600052602160045260246000fd5b60038110610d4157610d40610d01565b5b50565b6000819050610d5282610d30565b919050565b6000610d6282610d44565b9050919050565b610d7281610d57565b82525050565b6000608082019050610d8d6000830187610c6a565b8181036020830152610d9f8186610cc8565b90508181036040830152610db38185610cc8565b9050610dc26060830184610d69565b95945050505050565b6000602082019050610de06000830184610c6a565b92915050565b610def81610bd5565b82525050565b6000602082019050610e0a6000830184610de6565b92915050565b6000819050919050565b6000610e35610e30610e2b84610c38565b610e10565b610c38565b9050919050565b6000610e4782610e1a565b9050919050565b6000610e5982610e3c565b9050919050565b610e6981610e4e565b82525050565b6000602082019050610e846000830184610e60565b92915050565b60008060408385031215610ea157610ea0610a0d565b5b6000610eaf85828601610bf6565b9250506020610ec085828601610bf6565b9150509250929050565b6000602082019050610edf6000830184610d69565b92915050565b7f4e487b7100000000000000000000000000000000000000000000000000000000600052601160045260246000fd5b6000610f1f82610bd5565b91507fffffffffffffffffffffffffffffffffffffffffffffffffffffffffffffffff8203610f5157610f50610ee5565b5b600182019050919050565b6000606082019050610f716000830186610de6565b610f7e6020830185610c6a565b8181036040830152610f908184610cc8565b9050949350505050565b7f4f6e6c792074686520636f6e7472616374206f776e65722063616e2063616c6c60008201527f20746869732066756e6374696f6e000000000000000000000000000000000000602082015250565b6000610ff6602e83610c84565b915061100182610f9a565b604082019050919050565b6000602082019050818103600083015261102581610fe9565b9050919050565b7f496e76616c696420636572746966696361746520494400000000000000000000600082015250565b6000611062601683610c84565b915061106d8261102c565b602082019050919050565b6000602082019050818103600083015261109181611055565b9050919050565b7f43657274696669636174652072657175657374206973206e6f742070656e646960008201527f6e67000000000000000000000000000000000000000000000000000000000000602082015250565b60006110f4602283610c84565b91506110ff82611098565b604082019050919050565b60006020820190508181036000830152611123816110e7565b9050919050565b7f4e487b7100000000000000000000000000000000000000000000000000000000600052602260045260246000fd5b6000600282049050600182168061117157607f821691505b6020821081036111845761118361112a565b5b50919050565b60008190508160005260206000209050919050565b600081546111ac81611159565b6111b68186610c84565b945060018216600081146111d157600181146111e357611216565b60ff1983168652602086019350611216565b6111ec8561118a565b60005b8381101561120e578154818901526001820191506020810190506111ef565b808801955050505b50505092915050565b60006040820190506112346000830185610de6565b8181036020830152611246818461119f565b9050939250505056fea26469706673582212202fccc1991a24a8bfe354e72d7c329a6a4c260a1cb288ad5cd11dc0a6d8b4006964736f6c634300080d0033",
  "immutableReferences": {},
  "source": "// SPDX-License-Identifier: MIT\npragma solidity ^0.8.0;\n\ncontract University {\n    struct Student {\n        string name;\n        uint studentId;\n    }\n\n    Student[] public students;\n    mapping(uint => Student) public studentByCertificateId;\n\n    function applyForCertificate(string memory _name) public returns (uint) {\n        uint studentId = students.length;\n        students.push(Student(_name, studentId));\n        studentByCertificateId[studentId] = Student(_name, studentId);\n        return studentId;\n    }\n\n    function verifyStudent(uint _studentId) public view returns (string memory) {\n        Student memory student = studentByCertificateId[_studentId];\n        return student.name;\n    }\n}\n\ncontract DCS {\n    University public university;\n    struct Certificate {\n        uint id;\n        string data;\n        bool isValid;\n    }\n\n    mapping (uint => Certificate) public certificates;\n\n    constructor(address _universityAddress) {\n        university = University(_universityAddress);\n    }\n\n    function issueCertificate(uint _studentId, string memory _data) public {\n        string memory studentName = university.verifyStudent(_studentId);\n        certificates[_studentId] = Certificate(_studentId, _data, true);\n    }\n\n    function validateCertificate(uint _studentId) public view returns (bool) {\n        Certificate memory certificate = certificates[_studentId];\n        return certificate.isValid;\n    }\n}\n\ncontract CUE {\n    DCS public dcs;\n\n    constructor(address _dcsAddress) {\n        dcs = DCS(_dcsAddress);\n    }\n\n    function validateCertificate(uint _studentId) public view returns (bool) {\n        return dcs.validateCertificate(_studentId);\n    }\n}\n\ncontract KNQA {\n    DCS public dcs;\n\n    constructor(address _dcsAddress) {\n        dcs = DCS(_dcsAddress);\n    }\n\n    function validateCertificate(uint _studentId) public view returns (bool) {\n        return dcs.validateCertificate(_studentId);\n    }\n}\n\ncontract DigitalCertificateSystem {\n    address public owner;\n    DCS public dcs;\n\n    enum CertificateStatus { Pending, Approved, Rejected }\n\n    struct CertificateRequest {\n        address graduate;\n        string university;\n        string data;\n        CertificateStatus status;\n    }\n\n    mapping(uint256 => CertificateRequest) public certificateRequests;\n    uint256 public lastCertificateId;\n\n    event CertificateRequested(uint256 certificateId, address graduate, string university);\n    event CertificateApproved(uint256 certificateId);\n    event CertificateRejected(uint256 certificateId);\n\n    modifier onlyOwner() {\n        require(msg.sender == owner, \"Only the contract owner can call this function\");\n        _;\n    }\n\n    constructor(address _dcsAddress) {\n        owner = msg.sender;\n        lastCertificateId = 0;\n        dcs = DCS(_dcsAddress);\n    }\n\n    function requestCertificate(string memory university, string memory data) external {\n        lastCertificateId++;\n        certificateRequests[lastCertificateId] = CertificateRequest({\n            graduate: msg.sender,\n            university: university,\n            data: data,\n            status: CertificateStatus.Pending\n        });\n\n        emit CertificateRequested(lastCertificateId, msg.sender, university);\n    }\n\n    function approveCertificate(uint256 certificateId, uint studentId) external onlyOwner {\n        require(certificateId <= lastCertificateId, \"Invalid certificate ID\");\n\n        CertificateRequest storage request = certificateRequests[certificateId];\n        require(request.status == CertificateStatus.Pending, \"Certificate request is not pending\");\n\n        request.status = CertificateStatus.Approved;\n        emit CertificateApproved(certificateId);\n\n        // Issue certificate via DCS after approval\n        dcs.issueCertificate(studentId, request.data);\n    }\n\n    function rejectCertificate(uint256 certificateId) external onlyOwner {\n        require(certificateId <= lastCertificateId, \"Invalid certificate ID\");\n\n        CertificateRequest storage request = certificateRequests[certificateId];\n        require(request.status == CertificateStatus.Pending, \"Certificate request is not pending\");\n\n        request.status = CertificateStatus.Rejected;\n        emit CertificateRejected(certificateId);\n    }\n\n    function getCertificateStatus(uint256 certificateId) external view returns (CertificateStatus) {\n        require(certificateId <= lastCertificateId, \"Invalid certificate ID\");\n        return certificateRequests[certificateId].status;\n    }\n}",
  "sourcePath": "C:\\Users\\Admin\\Desktop\\icp-tutorial\\DigitalCertificateSystem\\contracts\\DigitalCertificateSystem.sol",
  "compiler": {
    "name": "solc",
    "version": "0.8.13+commit.abaa5c0e.Emscripten.clang"
  },
  "schemaVersion": "3.4.13",
  "updatedAt": "2023-08-07T14:23:04.752Z",
  "devdoc": {
    "kind": "dev",
    "methods": {},
    "version": 1
  },
  "userdoc": {
    "kind": "user",
    "methods": {},
    "version": 1
  }
}