{
  "contractName": "KNQA",
  "abi": [
    {
      "inputs": [
        {
          "internalType": "address",
          "name": "_dcsAddress",
          "type": "address"
        }
      ],
      "stateMutability": "nonpayable",
      "type": "constructor"
    },
    {
      "inputs": [],
      "name": "dcs",
      "outputs": [
        {
          "internalType": "contract DCS",
          "name": "",
          "type": "address"
        }
      ],
      "stateMutability": "view",
      "type": "function"
    },
    {
      "inputs": [
        {
          "internalType": "uint256",
          "name": "_studentId",
          "type": "uint256"
        }
      ],
      "name": "validateCertificate",
      "outputs": [
        {
          "internalType": "bool",
          "name": "",
          "type": "bool"
        }
      ],
      "stateMutability": "view",
      "type": "function"
    }
  ],
  "bytecode": "0x608060405234801561001057600080fd5b50604051610459380380610459833981810160405281019061003291906100db565b806000806101000a81548173ffffffffffffffffffffffffffffffffffffffff021916908373ffffffffffffffffffffffffffffffffffffffff16021790555050610108565b600080fd5b600073ffffffffffffffffffffffffffffffffffffffff82169050919050565b60006100a88261007d565b9050919050565b6100b88161009d565b81146100c357600080fd5b50565b6000815190506100d5816100af565b92915050565b6000602082840312156100f1576100f0610078565b5b60006100ff848285016100c6565b91505092915050565b610342806101176000396000f3fe608060405234801561001057600080fd5b50600436106100365760003560e01c806312bff8471461003b57806395142ede1461006b575b600080fd5b6100556004803603810190610050919061018c565b610089565b60405161006291906101d4565b60405180910390f35b61007361012d565b604051610080919061026e565b60405180910390f35b60008060009054906101000a900473ffffffffffffffffffffffffffffffffffffffff1673ffffffffffffffffffffffffffffffffffffffff166312bff847836040518263ffffffff1660e01b81526004016100e59190610298565b602060405180830381865afa158015610102573d6000803e3d6000fd5b505050506040513d601f19601f8201168201806040525081019061012691906102df565b9050919050565b60008054906101000a900473ffffffffffffffffffffffffffffffffffffffff1681565b600080fd5b6000819050919050565b61016981610156565b811461017457600080fd5b50565b60008135905061018681610160565b92915050565b6000602082840312156101a2576101a1610151565b5b60006101b084828501610177565b91505092915050565b60008115159050919050565b6101ce816101b9565b82525050565b60006020820190506101e960008301846101c5565b92915050565b600073ffffffffffffffffffffffffffffffffffffffff82169050919050565b6000819050919050565b600061023461022f61022a846101ef565b61020f565b6101ef565b9050919050565b600061024682610219565b9050919050565b60006102588261023b565b9050919050565b6102688161024d565b82525050565b6000602082019050610283600083018461025f565b92915050565b61029281610156565b82525050565b60006020820190506102ad6000830184610289565b92915050565b6102bc816101b9565b81146102c757600080fd5b50565b6000815190506102d9816102b3565b92915050565b6000602082840312156102f5576102f4610151565b5b6000610303848285016102ca565b9150509291505056fea26469706673582212205e84b200ea62e7c122716b826c284b2e6639369ac35db58dbf202056b02c8cfb64736f6c634300080d0033",
  "immutableReferences": {},
  "source": "// SPDX-License-Identifier: MIT\npragma solidity ^0.8.0;\n\ncontract University {\n    struct Student {\n        string name;\n        uint studentId;\n    }\n\n    Student[] public students;\n    mapping(uint => Student) public studentByCertificateId;\n\n    function applyForCertificate(string memory _name) public returns (uint) {\n        uint studentId = students.length;\n        students.push(Student(_name, studentId));\n        studentByCertificateId[studentId] = Student(_name, studentId);\n        return studentId;\n    }\n\n    function verifyStudent(uint _studentId) public view returns (string memory) {\n        Student memory student = studentByCertificateId[_studentId];\n        return student.name;\n    }\n}\n\ncontract DCS {\n    University public university;\n    struct Certificate {\n        uint id;\n        string data;\n        bool isValid;\n    }\n\n    mapping (uint => Certificate) public certificates;\n\n    constructor(address _universityAddress) {\n        university = University(_universityAddress);\n    }\n\n    function issueCertificate(uint _studentId, string memory _data) public {\n        string memory studentName = university.verifyStudent(_studentId);\n        certificates[_studentId] = Certificate(_studentId, _data, true);\n    }\n\n    function validateCertificate(uint _studentId) public view returns (bool) {\n        Certificate memory certificate = certificates[_studentId];\n        return certificate.isValid;\n    }\n}\n\ncontract CUE {\n    DCS public dcs;\n\n    constructor(address _dcsAddress) {\n        dcs = DCS(_dcsAddress);\n    }\n\n    function validateCertificate(uint _studentId) public view returns (bool) {\n        return dcs.validateCertificate(_studentId);\n    }\n}\n\ncontract KNQA {\n    DCS public dcs;\n\n    constructor(address _dcsAddress) {\n        dcs = DCS(_dcsAddress);\n    }\n\n    function validateCertificate(uint _studentId) public view returns (bool) {\n        return dcs.validateCertificate(_studentId);\n    }\n}\n\ncontract DigitalCertificateSystem {\n    address public owner;\n    DCS public dcs;\n\n    enum CertificateStatus { Pending, Approved, Rejected }\n\n    struct CertificateRequest {\n        address graduate;\n        string university;\n        string data;\n        CertificateStatus status;\n    }\n\n    mapping(uint256 => CertificateRequest) public certificateRequests;\n    uint256 public lastCertificateId;\n\n    event CertificateRequested(uint256 certificateId, address graduate, string university);\n    event CertificateApproved(uint256 certificateId);\n    event CertificateRejected(uint256 certificateId);\n\n    modifier onlyOwner() {\n        require(msg.sender == owner, \"Only the contract owner can call this function\");\n        _;\n    }\n\n    constructor(address _dcsAddress) {\n        owner = msg.sender;\n        lastCertificateId = 0;\n        dcs = DCS(_dcsAddress);\n    }\n\n    function requestCertificate(string memory university, string memory data) external {\n        lastCertificateId++;\n        certificateRequests[lastCertificateId] = CertificateRequest({\n            graduate: msg.sender,\n            university: university,\n            data: data,\n            status: CertificateStatus.Pending\n        });\n\n        emit CertificateRequested(lastCertificateId, msg.sender, university);\n    }\n\n    function approveCertificate(uint256 certificateId, uint studentId) external onlyOwner {\n        require(certificateId <= lastCertificateId, \"Invalid certificate ID\");\n\n        CertificateRequest storage request = certificateRequests[certificateId];\n        require(request.status == CertificateStatus.Pending, \"Certificate request is not pending\");\n\n        request.status = CertificateStatus.Approved;\n        emit CertificateApproved(certificateId);\n\n        // Issue certificate via DCS after approval\n        dcs.issueCertificate(studentId, request.data);\n    }\n\n    function rejectCertificate(uint256 certificateId) external onlyOwner {\n        require(certificateId <= lastCertificateId, \"Invalid certificate ID\");\n\n        CertificateRequest storage request = certificateRequests[certificateId];\n        require(request.status == CertificateStatus.Pending, \"Certificate request is not pending\");\n\n        request.status = CertificateStatus.Rejected;\n        emit CertificateRejected(certificateId);\n    }\n\n    function getCertificateStatus(uint256 certificateId) external view returns (CertificateStatus) {\n        require(certificateId <= lastCertificateId, \"Invalid certificate ID\");\n        return certificateRequests[certificateId].status;\n    }\n}",
  "sourcePath": "C:\\Users\\Admin\\Desktop\\icp-tutorial\\DigitalCertificateSystem\\contracts\\DigitalCertificateSystem.sol",
  "compiler": {
    "name": "solc",
    "version": "0.8.13+commit.abaa5c0e.Emscripten.clang"
  },
  "schemaVersion": "3.4.13",
  "updatedAt": "2023-08-07T14:23:04.833Z",
  "devdoc": {
    "kind": "dev",
    "methods": {},
    "version": 1
  },
  "userdoc": {
    "kind": "user",
    "methods": {},
    "version": 1
  }
}