{
  "contractName": "University",
  "abi": [
    {
      "inputs": [
        {
          "internalType": "uint256",
          "name": "",
          "type": "uint256"
        }
      ],
      "name": "studentByCertificateId",
      "outputs": [
        {
          "internalType": "string",
          "name": "name",
          "type": "string"
        },
        {
          "internalType": "uint256",
          "name": "studentId",
          "type": "uint256"
        }
      ],
      "stateMutability": "view",
      "type": "function"
    },
    {
      "inputs": [
        {
          "internalType": "uint256",
          "name": "",
          "type": "uint256"
        }
      ],
      "name": "students",
      "outputs": [
        {
          "internalType": "string",
          "name": "name",
          "type": "string"
        },
        {
          "internalType": "uint256",
          "name": "studentId",
          "type": "uint256"
        }
      ],
      "stateMutability": "view",
      "type": "function"
    },
    {
      "inputs": [
        {
          "internalType": "string",
          "name": "_name",
          "type": "string"
        }
      ],
      "name": "applyForCertificate",
      "outputs": [
        {
          "internalType": "uint256",
          "name": "",
          "type": "uint256"
        }
      ],
      "stateMutability": "nonpayable",
      "type": "function"
    },
    {
      "inputs": [
        {
          "internalType": "uint256",
          "name": "_studentId",
          "type": "uint256"
        }
      ],
      "name": "verifyStudent",
      "outputs": [
        {
          "internalType": "string",
          "name": "",
          "type": "string"
        }
      ],
      "stateMutability": "view",
      "type": "function"
    }
  ],
  "bytecode": "0x608060405234801561001057600080fd5b5061085a806100206000396000f3fe608060405234801561001057600080fd5b506004361061004c5760003560e01c806306ead22e146100515780630a3d2fbf14610082578063bb6be93c146100b2578063dc034e4c146100e3575b600080fd5b61006b60048036038101906100669190610504565b610113565b6040516100799291906105d9565b60405180910390f35b61009c60048036038101906100979190610504565b6101cf565b6040516100a99190610609565b60405180910390f35b6100cc60048036038101906100c79190610504565b61029c565b6040516100da9291906105d9565b60405180910390f35b6100fd60048036038101906100f89190610760565b610348565b60405161010a91906107a9565b60405180910390f35b6000818154811061012357600080fd5b9060005260206000209060020201600091509050806000018054610146906107f3565b80601f0160208091040260200160405190810160405280929190818152602001828054610172906107f3565b80156101bf5780601f10610194576101008083540402835291602001916101bf565b820191906000526020600020905b8154815290600101906020018083116101a257829003601f168201915b5050505050908060010154905082565b6060600060016000848152602001908152602001600020604051806040016040529081600082018054610201906107f3565b80601f016020809104026020016040519081016040528092919081815260200182805461022d906107f3565b801561027a5780601f1061024f5761010080835404028352916020019161027a565b820191906000526020600020905b81548152906001019060200180831161025d57829003601f168201915b5050505050815260200160018201548152505090508060000151915050919050565b60016020528060005260406000206000915090508060000180546102bf906107f3565b80601f01602080910402602001604051908101604052809291908181526020018280546102eb906107f3565b80156103385780601f1061030d57610100808354040283529160200191610338565b820191906000526020600020905b81548152906001019060200180831161031b57829003601f168201915b5050505050908060010154905082565b60008060008054905090506000604051806040016040528085815260200183815250908060018154018082558091505060019003906000526020600020906002020160009091909190915060008201518160000190805190602001906103af929190610417565b50602082015181600101555050604051806040016040528084815260200182815250600160008381526020019081526020016000206000820151816000019080519060200190610400929190610417565b506020820151816001015590505080915050919050565b828054610423906107f3565b90600052602060002090601f016020900481019282610445576000855561048c565b82601f1061045e57805160ff191683800117855561048c565b8280016001018555821561048c579182015b8281111561048b578251825591602001919060010190610470565b5b509050610499919061049d565b5090565b5b808211156104b657600081600090555060010161049e565b5090565b6000604051905090565b600080fd5b600080fd5b6000819050919050565b6104e1816104ce565b81146104ec57600080fd5b50565b6000813590506104fe816104d8565b92915050565b60006020828403121561051a576105196104c4565b5b6000610528848285016104ef565b91505092915050565b600081519050919050565b600082825260208201905092915050565b60005b8381101561056b578082015181840152602081019050610550565b8381111561057a576000848401525b50505050565b6000601f19601f8301169050919050565b600061059c82610531565b6105a6818561053c565b93506105b681856020860161054d565b6105bf81610580565b840191505092915050565b6105d3816104ce565b82525050565b600060408201905081810360008301526105f38185610591565b905061060260208301846105ca565b9392505050565b600060208201905081810360008301526106238184610591565b905092915050565b600080fd5b600080fd5b7f4e487b7100000000000000000000000000000000000000000000000000000000600052604160045260246000fd5b61066d82610580565b810181811067ffffffffffffffff8211171561068c5761068b610635565b5b80604052505050565b600061069f6104ba565b90506106ab8282610664565b919050565b600067ffffffffffffffff8211156106cb576106ca610635565b5b6106d482610580565b9050602081019050919050565b82818337600083830152505050565b60006107036106fe846106b0565b610695565b90508281526020810184848401111561071f5761071e610630565b5b61072a8482856106e1565b509392505050565b600082601f8301126107475761074661062b565b5b81356107578482602086016106f0565b91505092915050565b600060208284031215610776576107756104c4565b5b600082013567ffffffffffffffff811115610794576107936104c9565b5b6107a084828501610732565b91505092915050565b60006020820190506107be60008301846105ca565b92915050565b7f4e487b7100000000000000000000000000000000000000000000000000000000600052602260045260246000fd5b6000600282049050600182168061080b57607f821691505b60208210810361081e5761081d6107c4565b5b5091905056fea2646970667358221220c3640a4752a97482f619d93e470486a4c826549e2df1a8214eb6e0b66e4ee34464736f6c634300080d0033",
  "immutableReferences": {},
  "source": "// SPDX-License-Identifier: MIT\npragma solidity ^0.8.0;\n\ncontract University {\n    struct Student {\n        string name;\n        uint studentId;\n    }\n\n    Student[] public students;\n    mapping(uint => Student) public studentByCertificateId;\n\n    function applyForCertificate(string memory _name) public returns (uint) {\n        uint studentId = students.length;\n        students.push(Student(_name, studentId));\n        studentByCertificateId[studentId] = Student(_name, studentId);\n        return studentId;\n    }\n\n    function verifyStudent(uint _studentId) public view returns (string memory) {\n        Student memory student = studentByCertificateId[_studentId];\n        return student.name;\n    }\n}\n\ncontract DCS {\n    University public university;\n    struct Certificate {\n        uint id;\n        string data;\n        bool isValid;\n    }\n\n    mapping (uint => Certificate) public certificates;\n\n    constructor(address _universityAddress) {\n        university = University(_universityAddress);\n    }\n\n    function issueCertificate(uint _studentId, string memory _data) public {\n        string memory studentName = university.verifyStudent(_studentId);\n        certificates[_studentId] = Certificate(_studentId, _data, true);\n    }\n\n    function validateCertificate(uint _studentId) public view returns (bool) {\n        Certificate memory certificate = certificates[_studentId];\n        return certificate.isValid;\n    }\n}\n\ncontract CUE {\n    DCS public dcs;\n\n    constructor(address _dcsAddress) {\n        dcs = DCS(_dcsAddress);\n    }\n\n    function validateCertificate(uint _studentId) public view returns (bool) {\n        return dcs.validateCertificate(_studentId);\n    }\n}\n\ncontract KNQA {\n    DCS public dcs;\n\n    constructor(address _dcsAddress) {\n        dcs = DCS(_dcsAddress);\n    }\n\n    function validateCertificate(uint _studentId) public view returns (bool) {\n        return dcs.validateCertificate(_studentId);\n    }\n}\n\ncontract DigitalCertificateSystem {\n    address public owner;\n    DCS public dcs;\n\n    enum CertificateStatus { Pending, Approved, Rejected }\n\n    struct CertificateRequest {\n        address graduate;\n        string university;\n        string data;\n        CertificateStatus status;\n    }\n\n    mapping(uint256 => CertificateRequest) public certificateRequests;\n    uint256 public lastCertificateId;\n\n    event CertificateRequested(uint256 certificateId, address graduate, string university);\n    event CertificateApproved(uint256 certificateId);\n    event CertificateRejected(uint256 certificateId);\n\n    modifier onlyOwner() {\n        require(msg.sender == owner, \"Only the contract owner can call this function\");\n        _;\n    }\n\n    constructor(address _dcsAddress) {\n        owner = msg.sender;\n        lastCertificateId = 0;\n        dcs = DCS(_dcsAddress);\n    }\n\n    function requestCertificate(string memory university, string memory data) external {\n        lastCertificateId++;\n        certificateRequests[lastCertificateId] = CertificateRequest({\n            graduate: msg.sender,\n            university: university,\n            data: data,\n            status: CertificateStatus.Pending\n        });\n\n        emit CertificateRequested(lastCertificateId, msg.sender, university);\n    }\n\n    function approveCertificate(uint256 certificateId, uint studentId) external onlyOwner {\n        require(certificateId <= lastCertificateId, \"Invalid certificate ID\");\n\n        CertificateRequest storage request = certificateRequests[certificateId];\n        require(request.status == CertificateStatus.Pending, \"Certificate request is not pending\");\n\n        request.status = CertificateStatus.Approved;\n        emit CertificateApproved(certificateId);\n\n        // Issue certificate via DCS after approval\n        dcs.issueCertificate(studentId, request.data);\n    }\n\n    function rejectCertificate(uint256 certificateId) external onlyOwner {\n        require(certificateId <= lastCertificateId, \"Invalid certificate ID\");\n\n        CertificateRequest storage request = certificateRequests[certificateId];\n        require(request.status == CertificateStatus.Pending, \"Certificate request is not pending\");\n\n        request.status = CertificateStatus.Rejected;\n        emit CertificateRejected(certificateId);\n    }\n\n    function getCertificateStatus(uint256 certificateId) external view returns (CertificateStatus) {\n        require(certificateId <= lastCertificateId, \"Invalid certificate ID\");\n        return certificateRequests[certificateId].status;\n    }\n}",
  "sourcePath": "C:\\Users\\Admin\\Desktop\\icp-tutorial\\DigitalCertificateSystem\\contracts\\DigitalCertificateSystem.sol",
  "compiler": {
    "name": "solc",
    "version": "0.8.13+commit.abaa5c0e.Emscripten.clang"
  },
  "schemaVersion": "3.4.13",
  "updatedAt": "2023-08-07T14:23:04.867Z",
  "devdoc": {
    "kind": "dev",
    "methods": {},
    "version": 1
  },
  "userdoc": {
    "kind": "user",
    "methods": {},
    "version": 1
  }
}